{
  "contractName": "Controller",
  "abi": [
    {
      "constant": true,
      "inputs": [],
      "name": "command",
      "outputs": [
        {
          "name": "",
          "type": "string"
        }
      ],
      "payable": false,
      "stateMutability": "view",
      "type": "function",
      "signature": "0x9297c24c"
    },
    {
      "constant": true,
      "inputs": [
        {
          "name": "",
          "type": "address"
        }
      ],
      "name": "bots",
      "outputs": [
        {
          "name": "last_checkin",
          "type": "uint256"
        },
        {
          "name": "ip_address",
          "type": "string"
        },
        {
          "name": "initialized",
          "type": "bool"
        }
      ],
      "payable": false,
      "stateMutability": "view",
      "type": "function",
      "signature": "0xbfd79284"
    },
    {
      "inputs": [],
      "payable": false,
      "stateMutability": "nonpayable",
      "type": "constructor",
      "signature": "constructor"
    },
    {
      "constant": false,
      "inputs": [
        {
          "name": "new_command",
          "type": "string"
        }
      ],
      "name": "set_command",
      "outputs": [],
      "payable": false,
      "stateMutability": "nonpayable",
      "type": "function",
      "signature": "0x174ea651"
    },
    {
      "constant": true,
      "inputs": [],
      "name": "get_command",
      "outputs": [
        {
          "name": "",
          "type": "string"
        }
      ],
      "payable": false,
      "stateMutability": "view",
      "type": "function",
      "signature": "0xce7ac4a1"
    },
    {
      "constant": false,
      "inputs": [
        {
          "name": "ip",
          "type": "string"
        }
      ],
      "name": "join",
      "outputs": [],
      "payable": false,
      "stateMutability": "nonpayable",
      "type": "function",
      "signature": "0x6a786b07"
    },
    {
      "constant": false,
      "inputs": [],
      "name": "fund",
      "outputs": [],
      "payable": true,
      "stateMutability": "payable",
      "type": "function",
      "signature": "0xb60d4288"
    }
  ],
  "bytecode": "0x608060405234801561001057600080fd5b50336000806101000a81548173ffffffffffffffffffffffffffffffffffffffff021916908373ffffffffffffffffffffffffffffffffffffffff1602179055506108e9806100606000396000f3fe608060405260043610610078576000357c0100000000000000000000000000000000000000000000000000000000900463ffffffff168063174ea6511461007d5780636a786b07146101455780639297c24c1461020d578063b60d42881461029d578063bfd79284146102a7578063ce7ac4a114610383575b600080fd5b34801561008957600080fd5b50610143600480360360208110156100a057600080fd5b81019080803590602001906401000000008111156100bd57600080fd5b8201836020820111156100cf57600080fd5b803590602001918460018302840111640100000000831117156100f157600080fd5b91908080601f016020809104026020016040519081016040528093929190818152602001838380828437600081840152601f19601f820116905080830192505050505050509192919290505050610413565b005b34801561015157600080fd5b5061020b6004803603602081101561016857600080fd5b810190808035906020019064010000000081111561018557600080fd5b82018360208201111561019757600080fd5b803590602001918460018302840111640100000000831117156101b957600080fd5b91908080601f016020809104026020016040519081016040528093929190818152602001838380828437600081840152601f19601f8201169050808301925050505050505091929192905050506104f1565b005b34801561021957600080fd5b50610222610607565b6040518080602001828103825283818151815260200191508051906020019080838360005b83811015610262578082015181840152602081019050610247565b50505050905090810190601f16801561028f5780820380516001836020036101000a031916815260200191505b509250505060405180910390f35b6102a56106a5565b005b3480156102b357600080fd5b506102f6600480360360208110156102ca57600080fd5b81019080803573ffffffffffffffffffffffffffffffffffffffff1690602001909291905050506106a7565b604051808481526020018060200183151515158152602001828103825284818151815260200191508051906020019080838360005b8381101561034657808201518184015260208101905061032b565b50505050905090810190601f1680156103735780820380516001836020036101000a031916815260200191505b5094505050505060405180910390f35b34801561038f57600080fd5b50610398610776565b6040518080602001828103825283818151815260200191508051906020019080838360005b838110156103d85780820151818401526020810190506103bd565b50505050905090810190601f1680156104055780820380516001836020036101000a031916815260200191505b509250505060405180910390f35b6000809054906101000a900473ffffffffffffffffffffffffffffffffffffffff1673ffffffffffffffffffffffffffffffffffffffff163373ffffffffffffffffffffffffffffffffffffffff161415156104d7576040517f08c379a000000000000000000000000000000000000000000000000000000000815260040180806020018281038252600d8152602001807f4d757374206265206f776e65720000000000000000000000000000000000000081525060200191505060405180910390fd5b80600190805190602001906104ed929190610818565b5050565b6000600260003373ffffffffffffffffffffffffffffffffffffffff1673ffffffffffffffffffffffffffffffffffffffff16815260200190815260200160002090508060020160009054906101000a900460ff161515156105e1576040517f08c379a00000000000000000000000000000000000000000000000000000000081526004018080602001828103825260298152602001807f5468697320616464726573732068617320616c7265616479206265656e20696e81526020017f697469616c697a6564000000000000000000000000000000000000000000000081525060400191505060405180910390fd5b818160010190805190602001906105f9929190610818565b504281600001819055505050565b60018054600181600116156101000203166002900480601f01602080910402602001604051908101604052809291908181526020018280546001816001161561010002031660029004801561069d5780601f106106725761010080835404028352916020019161069d565b820191906000526020600020905b81548152906001019060200180831161068057829003601f168201915b505050505081565b565b6002602052806000526040600020600091509050806000015490806001018054600181600116156101000203166002900480601f0160208091040260200160405190810160405280929190818152602001828054600181600116156101000203166002900480156107595780601f1061072e57610100808354040283529160200191610759565b820191906000526020600020905b81548152906001019060200180831161073c57829003601f168201915b5050505050908060020160009054906101000a900460ff16905083565b606060018054600181600116156101000203166002900480601f01602080910402602001604051908101604052809291908181526020018280546001816001161561010002031660029004801561080e5780601f106107e35761010080835404028352916020019161080e565b820191906000526020600020905b8154815290600101906020018083116107f157829003601f168201915b5050505050905090565b828054600181600116156101000203166002900490600052602060002090601f016020900481019282601f1061085957805160ff1916838001178555610887565b82800160010185558215610887579182015b8281111561088657825182559160200191906001019061086b565b5b5090506108949190610898565b5090565b6108ba91905b808211156108b657600081600090555060010161089e565b5090565b9056fea165627a7a72305820ca5d22dfbdc5ded58b4d6adae5b64111725311f96356be930ce0a106660c2b020029",
  "source": "pragma solidity >=0.4.0 <0.6.0;\n\n/// @title Main contract for controlling bots\n/// @author Doshmajhan\ncontract Controller {\n    address owner;\n    string public command;\n    \n    struct Bot {\n        uint last_checkin; // last time the bot reported back\n        string ip_address;     // IP the bot is reporting back from\n        bool initialized;    // if this bot has initialized yet\n    }\n\n    mapping(address => Bot) public bots;\n\n    constructor() public {\n        owner = msg.sender;\n    }\n\n    /// @notice Sets the command for the bots to pull down\n    function set_command(string memory new_command) public {\n        require(msg.sender == owner, \"Must be owner\");\n        command = new_command;\n    }\n    \n\n    /// @notice Gets the current command stored for the bots to run\n    /// @return The current stored command\n    function get_command() public view returns (string memory) {\n        return command;\n    }\n\n\n    /// @notice Joins a bot to our network with the given ip address and eth address\n    ///     each bot is unique to its eth address it was intialized from\n    /// @param ip The ip address of the computer the bot is running on\n    function join(string memory ip) public {\n        Bot storage bot = bots[msg.sender];\n        require(!bot.initialized, \"This address has already been initialized\");\n        bot.ip_address = ip;\n        bot.last_checkin = now;\n    }\n\n    function fund() public payable { }\n}",
  "sourcePath": "/home/doshmajhan/Capstone/legion/contracts/Controller.sol",
  "compiler": {
    "name": "solc",
    "version": "0.5.0+commit.1d4f565a.Emscripten.clang"
  },
  "schemaVersion": "3.0.1",
  "updatedAt": "2019-02-03T23:34:25.218Z",
  "devdoc": {
    "author": "Doshmajhan",
    "methods": {
      "get_command()": {
        "return": "The current stored command"
      },
      "join(string)": {
        "params": {
          "ip": "The ip address of the computer the bot is running on"
        }
      }
    },
    "title": "Main contract for controlling bots"
  },
  "userdoc": {
    "methods": {
      "get_command()": {
        "notice": "Gets the current command stored for the bots to run"
      },
      "join(string)": {
        "notice": "Joins a bot to our network with the given ip address and eth address     each bot is unique to its eth address it was intialized from"
      },
      "set_command(string)": {
        "notice": "Sets the command for the bots to pull down"
      }
    }
  }
}