{
  "contractName": "Controller",
  "abi": [
    {
      "constant": true,
      "inputs": [],
      "name": "message",
      "outputs": [
        {
          "name": "",
          "type": "string"
        }
      ],
      "payable": false,
      "stateMutability": "view",
      "type": "function",
      "signature": "0xe21f37ce"
    },
    {
      "constant": false,
      "inputs": [],
      "name": "send_command",
      "outputs": [],
      "payable": false,
      "stateMutability": "nonpayable",
      "type": "function",
      "signature": "0xadbcc0f3"
    }
  ],
  "bytecode": "0x608060405234801561001057600080fd5b506102b5806100206000396000f3fe60806040526004361061004c576000357c0100000000000000000000000000000000000000000000000000000000900463ffffffff168063adbcc0f314610051578063e21f37ce14610068575b600080fd5b34801561005d57600080fd5b506100666100f8565b005b34801561007457600080fd5b5061007d610146565b6040518080602001828103825283818151815260200191508051906020019080838360005b838110156100bd5780820151818401526020810190506100a2565b50505050905090810190601f1680156100ea5780820380516001836020036101000a031916815260200191505b509250505060405180910390f35b6040805190810160405280600c81526020017f6563686f202768656c6c6f270000000000000000000000000000000000000000815250600090805190602001906101439291906101e4565b50565b60008054600181600116156101000203166002900480601f0160208091040260200160405190810160405280929190818152602001828054600181600116156101000203166002900480156101dc5780601f106101b1576101008083540402835291602001916101dc565b820191906000526020600020905b8154815290600101906020018083116101bf57829003601f168201915b505050505081565b828054600181600116156101000203166002900490600052602060002090601f016020900481019282601f1061022557805160ff1916838001178555610253565b82800160010185558215610253579182015b82811115610252578251825591602001919060010190610237565b5b5090506102609190610264565b5090565b61028691905b8082111561028257600081600090555060010161026a565b5090565b9056fea165627a7a72305820d128eca752dfb75a4014da84a1bcbd1e0f1b56aa6bf1c468232f5963991ee42d0029",
  "source": "pragma solidity >=0.4.21 <0.6.0;\n\ncontract Controller {\n    string public message;\n    \n    function send_command() public {\n        message = \"echo 'hello'\";\n    }\n}",
  "sourcePath": "/home/doshmajhan/Capstone/legion/contracts/Controller.sol",
  "compiler": {
    "name": "solc",
    "version": "0.5.0+commit.1d4f565a.Emscripten.clang"
  },
  "schemaVersion": "3.0.1",
  "updatedAt": "2019-01-27T05:17:00.833Z",
  "devdoc": {
    "methods": {}
  },
  "userdoc": {
    "methods": {}
  }
}